:10000000C01B00208D850000F96B0000FD6B000017
:10001000A70A02020002000004180FAC1065F100EC
:1000200000000000000000000000000000000000D0
:1000300000000000C4D80200000000000000000022
:100040000000000000000000FFFFFFFFFFFFFFFFB8
:10005000FFFFFFFFFFFFFFFFFFFFFFFFFFFFFFFFB0
:1000600000700F000000000000001000FFFFFFFF05
:10007000FFFFFFFF1C000000000000000000000068
:10008000684200206836002068360020683600206C
:10009000C01B00206406030078D502006012002017
:0C00A00037120020000010006842002011
:10020000C01B00208D850000F96B0000FD6B000015
:10021000056C0000016C0000096C0000898500007D
:100220008985000089850000898500008985000096
:100230000D6C00008985000089850000898500001B
:10024000751800002516010021700000746D000073
:10025000D910010091160100311601004916010064
:1002600029160100A90F00007D100000992E000042
:10027000AD800000746D0000746D00003904000052
:10028000746D0000746D0000A1100000746D00001A
:10029000746D0000746D0000746D0000746D0000DA
:1002A000746D0000746D0000746D0000746D0000CA
:1002B000951601002D160100F9150000D516010054
:1002C000746D0000F9FF0000746D0000746D000093
:1002D000746D0000746D0000746D0000746D00009A
:1002E000746D0000746D0000746D0000746D00008A
:1002F000746D0000746D0000746D0000746D00007A
:0C030000746D0000746D00008985000021
:10030C00F8B500BFF8BC08BC9E467047F8B500BFF6
:10031C00F8BC08BC9E46704710B5054C237833B921
:10032C00044B13B10448AFF300800123237010BDBC
:10033C00BC200020000000006001030008B5034B46
:10034C001BB103490348AFF3008008BD0000000057
:10035C00C020002060010300154B002B08BF134B7D
:10036C009D46A3F5803A00218B460F461348144A4C
:10037C00121A2DF0E8F80F4B002B00D098470E4BBB
:10038C00002B00D098470020002104000D000D48E0
:10039C00002802D00C48AFF300802DF0A5F8200007
:1003AC0029000AF0BDF92DF08BF800BF0000080001
:1003BC00C01B00200000000000000000BC2000203A
:1003CC0068360020000000000000000070B5134CDF
:1003DC008A00A31822449B781D09062D98BF104E45
:1003EC0003F00F0394BF755DFF25062B05719ABFB3
:1003FC000C4DEB5CFF234371FF3B18BF0123837152
:10040C00D37014F82130084C437053788370014634
:10041C00204602F0B1FD0123A36070BDD82000205E
:10042C00C3D70200BCD70200002000407FB5224990
:10043C0022480022FF23CDE901228DF809300378F0
:10044C004C6C8D6B03922C40E407DBB228D5022B4D
:10045C0026D88C6C1A4901EB8301A5B2CE781949C8
:10046C0006B326041ED521F813201749012202FADF
:10047C0003F30A781343154A0B701378CBB100239E
:10048C001478DC40E407D9B20FD501701078012440
:10049C0004FA03F34340DBB201A81370FFF796FF95
:1004AC0004B070BD21F81350DFE70133032BE7D103
:1004BC00F6E703230370F3E700200040E42000205C
:1004CC00D8200020E8200020E6200020E520002095
:1004DC000120704701207047012814BF0220002022
:1004EC0070470120704700207047012070470120A1
:1004FC007047002070470120704700207047002093
:10050C0070470120704700207047012070477047EA
:10051C007047000010B5104C1049A16103232166EF
:10052C000F491022C4E904330E4BE361C4E91912DC
:10053C0000230D49A362E01D6362E3622367E36657
:10054C00636722622DF007F8084920462DF003F866
:10055C002023A37110BD00BF00300020CAD70200B9
:10056C00EE200020FE200020D3D70200D7D70200B7
:10057C002DE9F84F1F4B16461A7881468A46984645
:10058C000AB9FFF7C7FF182707FB09873D6FD7F894
:10059C006CB05D452BD9BC6E796E641BB44228BF20
:1005AC0034462944504622462CF0C2FFBB6E2544EB
:1005BC00A244361BAB4208BF0025ABEB050B5E45D6
:1005CC0028BF5E4656B1182303FB09833246596E89
:1005DC00504629442CF0ACFF3444354424B1182344
:1005EC0003FB0988C8F870502046BDE8F88F00243A
:1005FC00E3E700BF00300020F8B504460E4617466E
:10060C0003F03FF93A46054631462046FFF7B0FF66
:10061C000446284603F03BF92046F8BD2DE9F84383
:10062C00124D1E462B788146884617460BB9FFF7AC
:10063C0071FF03F026F9696900244FF0180C0CFBCC
:10064C0004535A6E2AB10134A142F8DC4FF0FF3446
:10065C0007E0A142FADDC3E918989F661A67DA66CB
:10066C005E6703F014F92046BDE8F88300300020E3
:10067C00FFF750BF012270B51146042002F03AFF7B
:10068C001A4B1B4D1A681B4842F001021A60DA68BB
:10069C004FF0604442F08072DA60174BC4F8B03F00
:1006AC0000260223C4F8006EC4F8806EC5F8F03042
:1006BC0002F02CFE00F5D520104B114A00F2FC4044
:1006CC00B0FBF3F00F4B01382861C4F8406E1A6090
:1006DC000D4BC4F8803E4FF48073C5F80433D4F846
:1006EC00003E43F48073C4F8003E70BDF0ED00E0B2
:1006FC00000004E006000E0055CEACC5F8590D0004
:10070C00FF030040001000E00D00010010B50121B6
:10071C00104802F01BFD104B01241C60002003F05C
:10072C00FBFC234604220221052003F04DFD20464C
:10073C0009F060FFFFF79EFF09F062FFFFF798FFDB
:10074C002346402205490648FFF768FF054B186011
:10075C00C00F10BD00350A00108814420E21002075
:10076C00DED70200C81B0020024B1868003018BFEF
:10077C0001207047F0ED00E0054A4170D123037071
:10078C001378C370090A8170591C117004207047CA
:10079C004E2100202DE9F84F2E4F3B681C5C032C9A
:1007AC00804655D908F015F80534DFF8ACA0E4B252
:1007BC0081464FF6FF7B0025DAF800304BB1AC4296
:1007CC0007D908F006F8A0EB090080B2B0F5FA7F63
:1007DC0004D9601B18BF0120BDE8F88F9DB3012D13
:1007EC0015D13B6813F8085002264FF06043D3F83C
:1007FC00802ED10709D5D3F8002ED20505D5194680
:10080C000A6A002AFCD083F820503546D4E7E31E50
:10081C006E1C9D42F6B202D15FFA8BF5E5E7A31E82
:10082C009D4202D1CBF30725DFE7631E9D420DD01D
:10083C00A91EC9B2404619F001FF5946054606F0FB
:10084C006BF98346D1E75B250126CEE75D25CCE726
:10085C000120C1E7581C0020F0ED00E010B50B4B57
:10086C0090B0402269461868FFF7C6FE58B1C1B275
:10087C00684619F06DFE0446014612202BF074F9FF
:10088C00204619F009FD10B010BD00BFC81B002098
:10089C0070B5164685180AB9304470BD01F00F03C7
:1008AC000A2B34BF302437242344013A090905F8B4
:1008BC00013DD2B2EFE70000F0B5F9B100281CDA27
:1008CC002D23B0F1004F137000D04042012115E0F0
:1008DC00801B8642ECB205F10105F9D904B927B1A8
:1008EC004D1C303454540127E9B20133092B09D182
:1008FC00303050540131C8B2F0BD00210023DFF874
:10090C000CC01F465CF823600025E2E7F0D702001C
:10091C002DE9F04F95B04FF0000B02AC81468A46A2
:10092C0017461D465E46A0463B7863B902ABE41AF7
:10093C00E4B2224619465046C847002840F093803E
:10094C003444E0B290E0252B13D0BBF1000F14D14E
:10095C002370013412AB9C426DD3A4EB0804E4B2B7
:10096C00224641465046C84700287CD12644F6B260
:10097C0060E0BBF1000F00D101373B78632B00F036
:10098C0092801BD8392B09D8302B80F09E80002BFD
:10099C00CCD0252B51D04FF0000BDBE7582B00F0BF
:1009AC008B80622BF7D12B6801936B6800934FF00F
:1009BC00000B009B9B4543D10835ECE7702B1ED0F8
:1009CC0017D8642B01D06C2BE5D16C2B05F1040BE3
:1009DC0028686CD17B78752B14BF0121002101D0C4
:1009EC00642B00D101372246FFF766FF04445D46B5
:1009FC00D1E7752BE9D0782B5ED0732BCBD1A4EB40
:100A0C000804E4B2224602A9504605F1040B2D68F5
:100A1C00C84740BB2644F6B2C4B201302B5D002B54
:100A2C00FAD1224629465046C847E0B926445D46CD
:100A3C00F6B283464446013776E723700134AAE7C1
:100A4C00019B204613F80B100222FFF721FF12AB7B
:100A5C00984204460ED3A0EB0804E4B22246414669
:100A6C005046C84718B1002015B0BDE8F08F264499
:100A7C00F6B24446009B013B5B4582BF20232370AA
:100A8C00013412AB9C420BD3A4EB0804E4B2224613
:100A9C0041465046C8470028E5D12644F6B24446A4
:100AAC000BF1010B85E72B6823700435C6E7752B1A
:100ABC000CBF0021012196E7204602222978FFF77E
:100ACC00E7FE05F1040B044691E77A7802F0DF02A9
:100ADC00582A19D1322B07F1010B09D129882F1D66
:100AEC0004222046FFF7D4FE3D4604465F4652E7FB
:100AFC00342B09D12F1D2D680422290C2046FFF719
:100B0C00C7FE0422A9B2EDE74FF0010B22E700006B
:100B1C002DE9F04F9B46584B85B01B78109F9DF8E4
:100B2C0044A0DDF85080064689461546002B00F09F
:100B3C009280072A00F291800E9B002B00F08D8092
:100B4C000F9B002B00F08980129BB3F5006F00F314
:100B5C008480012801D1002F7FD0484B03EB051373
:100B6C001B7B002B7BD0464C1022002168462CF0BE
:100B7C00EAFC04EB45141022B9F1000F5CD1494694
:100B8C0020462CF0E0FCA37843F01003A370E3782C
:100B9C0043F03003E370BAF1000F03D1DBB243F042
:100BAC000303E3703649129BCDF800B06A01013B98
:100BBC00885A01EB020C63F30E1088520E9BCCF892
:100BCC0008300F9BCCF804309DF84C109CF8033087
:100BDC00012E61F383038CF8033042D11323CCF83C
:100BEC000C309CE80F000CF1100E8EE80F00DCF8B6
:100BFC001C20CCF814706FF0030161F39F02B9F163
:100C0C00010FCCF81C2004D10F9BCCF81830CCF879
:100C1C0004701A492A018B1841F802800027159A92
:100C2C005A6028469F605E732246694603F05AFB61
:100C3C00384605B0BDE8F08F002120462CF083FC2F
:100C4C001023A3700323E370BAF1000FAAD1DBB217
:100C5C0043F03003A5E70B48EBE70B48E9E70B48FB
:100C6C00E7E7B8F1000FD4D19CF8023068F3041315
:100C7C008CF80230CDE700BFD0220020502100209C
:100C8C00D0210020028000F0018000F0078000F0ED
:100C9C0038B5104B1B780546BBB1C0B102F0F1FD65
:100CAC000D49002301EB0312147B3CB92B6001238B
:100CBC001373146002F0EBFD204638BD0133082B92
:100CCC00F0D102F0E4FD0548F7E70548F5E70548E3
:100CDC00F3E700BFD022002050210020048000F058
:100CEC00028000F0018000F038B502F0CAFD0B4A1A
:100CFC0005460023D1180C7B5CB91033802BF9D13D
:100D0C0003F0A4FA064B28461C7002F0C0FD2046E6
:100D1C0038BD284602F0BBFD0248F9E750210020FF
:100D2C00D0220020058000F00D4B1B7810B5044636
:100D3C0093B1072812D802F0A4FD0A4B03EB04135D
:100D4C001A7B2AB100241C7302F0A1FD204610BDB1
:100D5C0002F09DFD0448FAE70448F8E70448F6E77A
:100D6C00D022002050210020068000F0028000F0EC
:100D7C00018000F013B5164B1868019000238DF814
:100D8C00043002F07EFD134B1C7824B102F07FFD81
:100D9C00114802B010BD01221A7002F078FD0F4B01
:100DAC001C731C7783F82C4083F83C4083F84C4030
:100DBC0083F85C4083F86C4083F87C4004230DEB93
:100DCC0003008DF8073003F061FA2046E1E700BF1D
:100DDC0014D80200D0220020038000F05021002003
:100DEC0010B588B00E9C07940D9C06949DF830406D
:100DFC0005940B9C04949DF8284003940024CDE9A1
:100E0C00013400920B46024621462046FFF780FE35
:100E1C0008B010BD10B588B00E9C07940D9C0694BC
:100E2C009DF8304005940B9C04949DF82840039445
:100E3C000024CDE9013400920B46024601212046E4
:100E4C00FFF766FE08B010BD08B50A4B1B785BB106
:100E5C0007280BD8084B03EB00131B7B43B1002175
:100E6C0003F00AFA002008BD0448FCE70448FAE73E
:100E7C000448F8E7D022002050210020028000F026
:100E8C00018000F0078000F008B50A4B1B785BB1BD
:100E9C0007280BD8084B03EB00131B7B43B1012134
:100EAC0003F0EAF9002008BD0448FCE70448FAE71F
:100EBC000448F8E7D022002050210020028000F0E6
:100ECC00018000F0078000F008B50A4B1B7853B185
:100EDC0007280AD8084B03EB00131B7B3BB103F02C
:100EEC0053FA002008BD0548FCE70548FAE7054819
:100EFC00F8E700BFD022002050210020028000F033
:100F0C00018000F0078000F00D4B1B7893B107288F
:100F1C0012D889B10B4B03EB00131B7B73B10A4B3B
:100F2C001A6A012303FA00F010401ABF00200B705C
:100F3C00087070470548704705487047054870476A
:100F4C00D02200205021002000200E40028000F012
:100F5C00018000F0078000F00B4B1B7810B50C469D
:100F6C0063B107280CD859B1084B03EB00131B7B5A
:100F7C0043B103F01FFA2060002010BD0448FCE7C9
:100F8C000448FAE70448F8E7D0220020502100205A
:100F9C00028000F0018000F0078000F02DE9F8439A
:100FAC00174E326EF36E12EA030800D5FEE7154CAD
:100FBC00DFF854900127002518EA070F16D0236894
:100FCC00B7669BB1A16862680131A1602846984759
:100FDC00637B012B0AD148B909EB4513197B1A7FA6
:100FEC0060F3410160F3410219731A770135082D42
:100FFC004FEA470704F11004DED1BDE8F88300BFC7
:10100C0000200E4050210020D021002070B5094E48
:10101C000446012504B970BD94FAA4F0B0FA80F02E
:10102C0005FA00F324EA030456F82030002BF1D023
:10103C009847EFE7D4220020054B4FF48022C3F8E9
:10104C0080211A604FF48062C3F880211A607047C7
:10105C0000E100E038B504460D4602F012FC034BEB
:10106C0043F82450BDE8384002F011BCD4220020D3
:10107C00074BD3F82804D3F81C24104020F42A5032
:10108C0020F02A004004400CC3F82404FFF7BEBF34
:10109C0000A00040074BD3F82804D3F81C241040C0
:1010AC0020F4AA4020F055000004000CC3F82404DE
:1010BC00FFF7ACBF00A000402DE9F84F284C4FF0D3
:1010CC00000A04F1A00580464FF000094FF0010B17
:1010DC00237F84F81DA06BB1D4E90023994508BF88
:1010EC009045104619460AD2B2EB080063EB090191
:1010FC00C4E900012834AC42EAD1BDE8F88FE37FA3
:10110C0033B92377A369002BF4D084F81DB0F1E731
:10111C00D4E90267B8EB000069EB010132463B46AB
:10112C002CF04EF8B01A67EB030123696269002BAF
:10113C00C4E900010BDD13441D2B6361E2D9461C8D
:10114C0041F100071E3BC4E900676361DAE7D31A7B
:10115C001D2B6361D6D910F1FF3641F1FF37F1E752
:10116C002823002038B5074C0025637F1BB1A369E9
:10117C00216A284698470135042D04F12804F4D13E
:10118C0038BD00BF28230020064B5A6A99690A40D3
:10119C00D20705D501221A62034A13680133136082
:1011AC00704700BF00200440C8230020F0B5194E42
:1011BC0000214FF0FF324FF0FF337418257F3DB103
:1011CC00D4E900459D4208BF94423CBF22462B46C1
:1011DC002831A029F1D1104900240C705C1C08BFE7
:1011EC00B2F1FF3F0C4614D000279F420B496FF021
:1011FC00640608BF9642086038BF32460849042589
:10120C0002440D6201234A6523704B6A43F00403C8
:10121C004B62F0BD282300201C2300201823002043
:10122C00002004400F4B1B7870B50546BBB102F093
:10123C0028FB0D490023282606FB0312947F14B9C2
:10124C0035B90A4C07E00133042BF5D1084C02E008
:10125C00012191772B6002F01AFB204670BD054CE2
:10126C00FBE700BF1D23002028230020041000F002
:10127C00011000F0061000F070B5204D2C78002CF9
:10128C003AD101211E481F4E01F060FF03211E4878
:10129C0002F0B4F901211D48347101F057FF3046BA
:1012AC0003F050F91A49012003F032F9194B1A488E
:1012BC005A6A22F4FF6222F007025A6240F2FF726D
:1012CC001A62164A9C604FF08041C2F8801111607E
:1012DC005A6A42F001025A622146A0222CF033F9DC
:1012EC000F4B1C700F4B1C700F4B1C600F4B1C607A
:1012FC000F4B1C6001232B70002070BD1D230020A0
:10130C0000250A00CC1B002005002400A0091400B5
:10131C00D51B0020002004402823002000E100E021
:10132C00142300201C23002020230020C82300208D
:10133C00CC2300202DE9F74F93465C4A12780746E0
:10134C0089461E46002A00F0AD80032800F2AC80CE
:10135C0002F097FA564A282404FB07248046A17F02
:10136C00924629B902F093FA524803B0BDE8F08FC7
:10137C00BBF1000F08D116B10C993846B047404666
:10138C0002F085FA0020F0E74B4A4FF4004C4FF482
:10139C00FA7000219568A6614FF47A720023ECFB79
:1013AC000B012BF00DFFB9F1010F02460B46C4E9FE
:1013BC00022309D14FF47A7303FB0BFB1E2303FBAF
:1013CC0010B323610F236361282303FB07A30130B0
:1013DC004FF0010241F10001C3E900011A770C9AA8
:1013EC0083F81F901A62354B1B78002BC7D1344CF5
:1013FC00236801331EBF236801332360314B0193F3
:10140C001A78E2B9304B2C4E1D6004233362002352
:10141C006FF064028B4208BF824238BF10462844EA
:10142C007065736A019A43F00403736201231370AD
:10143C002368002BA3D02368013B23609FE723681C
:10144C00012BF5D1282303FB07A30026DFF86890B6
:10145C00DFF874B01E77D9F8242022F00402C9F802
:10146C002420DBF80000281AFFF726FEFFF77AFE8F
:10147C0026B9282202FB07A2012010772846FFF785
:10148C0095FE114BD9F808501868D9F85420019BD7
:10149C00A5EB000C121A187801360028C8D0944518
:1014AC00D9D2C5E7094860E709485EE71D2300204B
:1014BC0028230020031000F00020044014230020F7
:1014CC00202300201C23002018230020061000F0ED
:1014DC00021000F02DE9F843264B1B7805460C460C
:1014EC00002B41D0032841D8002941D002F0C9F982
:1014FC00214B282202FB05339A7F22B902F0C7F94F
:10150C001E48BDE8F8831A7F1AB902F0C0F91C48CE
:10151C00F7E7D3E900671B4B9D681B4BD3F80080A2
:10152C0002F0B5F90021A5EB08008F4208BF8642F6
:10153C0015D3361A67EB0107B046B9464FF47A75E6
:10154C00A8FB052312F5804005FB09334FEAD03286
:10155C0043F1000142EA414222600020D1E74FF002
:10156C0000084FF00009E9E70848CAE70848C8E74F
:10157C000848C6E71D23002028230020031000F094
:10158C00051000F00020044018230020061000F085
:10159C00021000F0041000F0F8B502F072F9084DDA
:1015AC00084F2C68BE68FFF7EFFD2B689C42F8D102
:1015BC0002F06DF90022901944F10001F8BD00BF52
:1015CC00C8230020002004402DE910484FF47A7401
:1015DC00A0FB04BC1BF5804204FB01CC4CF10003C6
:1015EC00D00B40EA4340BDE8108800002DE9F843D9
:1015FC001A4C02F046F9626AA1690A4022F0050110
:10160C0053070546216221D5154AA768154EDFF808
:10161C005890012111709046636A23F004036362B1
:10162C003068381AFFF748FDFFF79CFD3846FFF786
:10163C00BDFD3268A768636DB91A9B1A99F8002032
:10164C000AB19942E8D2002388F80030FFF79CFDDC
:10165C002846BDE8F84302F01AB900BF0020044048
:10166C0014230020182300201C230020044B4FF0CF
:10167C004042DA621A6B22F040421A63704700BF94
:10168C0000300E402C48F0B5002203682B4D11465B
:10169C0054592CB11E68AC18002E36D123460121AA
:1016AC000832282AF4D101B103602549254E0B6874
:1016BC000022144695592DB11F68B518002F2BD157
:1016CC002B4601240832282AF4D104B10B6000689F
:1016DC001D4B026842B3DA69007922F0FF02024323
:1016EC00DA611A6B42F0804209681A630A68164B79
:1016FC00F2B1DA69097922F47F4242EA0122DA6115
:10170C001A6B42F000421A63F0BD1E792779B7427A
:10171C0084BF23460121C3E71F7995F804C0BC455B
:10172C003CBF2B460124CDE71A6B22F08042DBE74D
:10173C001A6B22F00042E6E7DC230020EC230020A9
:10174C00E02300201424002000300E4008B51B4B71
:10175C001B4801221A70002128222BF0F4FE2822AB
:10176C00002118482BF0EFFE174A184B136018494C
:10177C00184A13600A684B6DC2F30742FF2A02D065
:10178C00DBB2FF2B01D190231922134802EB82010B
:10179C0003EBD1010160DB000521B3FBF1F3134432
:1017AC000E4A1360FFF762FF0D4B0122C3F8802134
:1017BC001A60FFF767FF002008BD00BFD023002090
:1017CC00EC23002014240020DC230020E423002040
:1017DC00B081E00FE0230020D4230020D823002088
:1017EC0000E100E0064B186AC0B20523C000B0FB54
:1017FC00F3F0044B1B68181A00F3070040B2704753
:10180C0000300E40D823002010B5144C226B616AB6
:10181C000A4010D5124B1B681A682AB100211960B6
:10182C005960FFF7DFFF90474FF00043E362BDE8DC
:10183C001040FFF727BF5300F9D50A4B1B681A68F5
:10184C0032B1002119605960FFF7CCFF012190479C
:10185C00024B4FF08042DA62E9E700BF00300E40E5
:10186C00E0230020DC230020FFF7CEBF38B141B1CC
:10187C00013AB2F5006F044838BF002070470348A6
:10188C0070470148704700BF037000F0027000F011
:10189C000D490E4A0B7810B54BB9C2E90033C2E9B9
:1018AC00023301240C7042F82300002010BD0023E9
:1018BC0052F823100029F6D08142F4D00133042BC6
:1018CC00F6D10348F2E700BF4C2400203C24002052
:1018DC00027000F038B504460D4601F0D2FFA28824
:1018EC0092B222B92A6001F0D2FF064838BD638853
:1018FC00142202FB034308332B6001F0C8FF0020C5
:10190C00F4E700BF0B7000F038B504460D4601F04B
:10191C00B8FFA3889BB223B92B6001F0B8FF0C4829
:10192C0038BD6388E188142202FB034308332B6023
:10193C0063885A1C92FBF1F301FB13239BB2638067
:10194C00A388013B9BB2A38001F0A1FF0020E7E735
:10195C000B7000F07FB5012380F82C3090F83230FA
:10196C0093B90C4A036803920022049002924A68CD
:10197C000192012200920A68016980681C33FFF70A
:10198C0049FA07B05DF804FB012BEAD0002380F87C
:10199C002C30F6E7F12100007FB5012380F82D30C3
:1019AC0090F8323083B9026834320D4B0393002324
:1019BC00049002934B680193012300930B68C16858
:1019CC004068FFF70DFA07E0012B02D102682832BC
:1019DC00EBE7002380F82D3007B05DF804FB00BF67
:1019EC00F1190000F7B5906A01A91446FFF772FFD0
:1019FC00144B984220D0019B00251D619D6001F085
:101A0C0040FF019AD668074626B1D2E90023294641
:101A1C002046B04701A9A06AFFF776FFA06A838829
:101A2C009BB263B101A9FFF755FF01992046FFF75F
:101A3C00B3FF384601F02BFF012003B0F0BD84F852
:101A4C002D30F6E70B7000F0427E30235343044AEE
:101A5C001A44437F03EBC2039B001868C0B2704763
:101A6C001CA0104213B51D4A002352F82340617F7D
:101A7C0081420ED00133042BF7D102B010BD0028E7
:101A8C00FBD19DF80730002BF7D06068FFF7DCF92D
:101A9C00F3E794F83130022BEFD12046FFF7D4FF57
:101AAC00637D2075022BE8D194F82E3003F0FF02F1
:101ABC00002BE2D102A9606801F8012DFFF724FA8E
:101ACC00237D1BB194F82F30002BD8D0002384F841
:101ADC002F306068FFF7D8F9CFE700BF3C24002017
:101AEC0090F8323053B903680122DA601A69D007D2
:101AFC00FCD55A6F42F001025A677047012B0CD18A
:101B0C0003685A6C9107FCD401225A609A68D20778
:101B1C00FCD55A6D42F001025A65704790F832308C
:101B2C003BB903685A6F22F001025A670222DA604D
:101B3C007047012B09D103685A6C9207FCD45A6D7B
:101B4C0022F001025A6502225A60704710B5044611
:101B5C00FFF710F90021201DFFF79AF8014608B194
:101B6C00044810BD04F10800FFF792F80028F8D0E3
:101B7C00F6E700BF0E7000F0F8B5044617460D46A8
:101B8C0001F07FFEA388E2889A42064605D800231E
:101B9C003B6001F07CFE1648F8BD2388142202FB42
:101BAC000343083305F1100C2A4603CA624518603A
:101BBC005960154603F10803F6D1106818602388A4
:101BCC00E188142202FB034308333B6023885A1C30
:101BDC0092FBF1F301FB13239BB22380A388013307
:101BEC009BB23046A38001F052FE0020D4E700BF28
:101BFC000A7000F073B504460D46C07DE67E0029E0
:101C0C0034D001230422314602F0DEFA01230222F1
:101C1C00217F207E02F0D8FA94F83130022B16D1B5
:101C2C0000230122617F607E02F0CEFA00230422A1
:101C3C00A07EA17F02F0C8FA0123627F607E01932F
:101C4C000093114602F074FA002002B070BD032B11
:101C5C00FAD100230122617F607E02F0B5FA0023E5
:101C6C000422A17FA07E02F0AFFAEDE70B460A46F4
:101C7C00314602F0A9FA2B462A46217F207E02F03B
:101C8C00A3FA94F83130022B10D12B462A46617FEF
:101C9C00607E02F099FA2B462A46A07EA17F02F0C4
:101CAC0093FA627F607E01950123C9E7032BCBD1A8
:101CBC002B462A46617F607E02F086FA2B462A4626
:101CCC00CFE790F8323013B9036818697047012BCD
:101CDC001CD103689B6803F00200DA0748BF40F090
:101CEC000100590748BF40F008001A0748BF40F0F0
:101CFC002000D90648BF40F040009A0648BF40F08B
:101D0C0080005B0603D540F40050704700207047FC
:101D1C002DE9F3410D460446002879D001F0B1FDC0
:101D2C00012D06463BD1A36A9B889BB2002B3DD06C
:101D3C006068FFF7C9F80023A06A84F82D30838807
:101D4C009BB273B101A9FFF7C5FD01996068364FCD
:101D5C000831FFF701F9019B1F61A06A83889BB2D0
:101D6C0053BB2046FFF7ADFF8304FAD5023D012D8E
:101D7C0010D8A068FFF7A8F80023606A84F82C300C
:101D8C0083889BB23BBB94F83130032B02D02046A6
:101D9C00FFF7C4FE304601F07AFD002009E0022D69
:101DAC0038D1636A9B889BB2002BDFD101F06FFDA9
:101DBC001E4802B0BDE8F08101A9FFF7A5FD019B0B
:101DCC00D3F80C80B8F1000FC7D09B6800223946BD
:101DDC002046C047C1E76946FFF77CFD0099A06823
:101DEC00114F0831FFF7B8F8009B1F61606A8388B8
:101DFC009BB2002BC7D06946FFF786FD009BDD68C0
:101E0C00002DF3D09B68002239462046A847EDE709
:101E1C000748CEE7032DA9D1A36A9B889BB2002B60
:101E2C0086D1636A80E700BF097000F0087000F08B
:101E3C00027000F0436A9888C0B270472DE9F341F4
:101E4C000546406A84889846A4B200230E4617467D
:101E5C00CDE900333CB16946FFF73CFD01A90446CE
:101E6C00A868FFF779F8009971B16CB94868019BC3
:101E7C00C01A3860C8F800300B6833602846FFF78A
:101E8C0020FF02B0BDE8F0810021C8F800103960D5
:101E9C003160F3E7836A9888C0B270472DE9F3414B
:101EAC000546806A84889846A4B200230E461746DD
:101EBC00CDE900333CB16946FFF70CFD01A904469E
:101ECC006868FFF749F8009971B16CB94868019BD3
:101EDC00C01A3860C8F800300B6833602846FFF72A
:101EEC00F0FE02B0BDE8F0810021C8F800103960A6
:101EFC003160F3E7007D70472DE9F04104460E4652
:101F0C001746FFF7B3FC804650BB092001F0DEFCFE
:101F1C000546A26A93889BB213B194F82E3013B382
:101F2C0094F8322022BB23681D6915F0020533D0CA
:101F3C00012384F83030002A3FD13744BE42206858
:101F4C0036D103699E06FCD555B994F83230002B76
:101F5C0042D123685A6F22F002025A670822DA60D3
:101F6C004046BDE8F081002DD4D0FFF717F8D0E73C
:101F7C00012A1BD123689D6815F00205D8D1596C34
:101F8C008807FCD40421596099688907FCD5596DE0
:101F9C0041F002015965CBE70421D9601969890721
:101FAC00FCD5596F41F002015967C1E70025BFE725
:101FBC0016F8011B02F048FCC0E7012AD0D13744C7
:101FCC00B742206803D183681907FCD5BCE716F823
:101FDC00011B02F034FAF3E7012BC1D123685A6CD0
:101FEC009207FCD45A6D22F002025A6508225A60FC
:101FFC00B6E7000010B50446B0B190F82E3033B9F6
:10200C0090F83130022B0AD06068FEF71DFF94F86F
:10201C002E300133DBB284F82E30002010BDFFF7D8
:10202C0013FD0028F3D1EFE70048F7E7027000F04A
:10203C0010B50446D0B190F82E30CBB190F82E30BC
:10204C00012B06D190F83130022B0AD06068FEF7D4
:10205C001BFF94F82E30013BDBB284F82E300020AD
:10206C0010BDFFF7F1FC0028F3D1EFE70148F7E7CB
:10207C000148F5E7027000F0057000F037B590F8F4
:10208C003150022D044618D1A37F407D01229A4085
:10209C00A37E30215943134B0B4410B903F18063D9
:1020AC0003E0012805D103F1C0631A60002003B0DE
:1020BC0030BD217D0029F6D1F0E7012DF6D1037D4D
:1020CC0073B911238DF80730FFF794FF2A460DF1F1
:1020DC0007012046FFF710FF2046FFF7A9FFE5E7B1
:1020EC001323EFE70CA0004090F83130032B05D000
:1020FC000229417518BF0175FFF7C0BF0048704732
:10210C00057000F010B5044600283AD00321FFF703
:10211C00FFFD00212046FFF7E7FF00212046FFF7D7
:10212C0069FD94F8323003BB23680A22DA6000217F
:10213C00206A01F00BF894F83130032B03D0002106
:10214C00607FFEF787FF6068FEF7EEFDA068FEF784
:10215C00EBFDFEF7C9FD636A00201880588098805B
:10216C00A36A18805880988010BD012BDFD120689D
:10217C0002F051F923685A6C9207FCD40A225A6077
:10218C00D5E70148F0E700BF027000F0F0B587B06A
:10219C0004461646FFF76AFB0546F0B9CDE9011671
:1021AC0004936A460E4B606A039601A90593FFF7E8
:1021BC00E3FC054688B994F82C3073B92046FFF738
:1021CC008FFC00992046FFF7C5FB94F83130032BA8
:1021DC0003D025752046FFF751FF284607B0F0BD08
:1021EC00017000F073B5506A01A91446FFF772FB39
:1021FC00334B98422FD094F83200019B002836D1F3
:10220C002268116C11F4007128D02E491961986064
:10221C004FF40073936401F034FB0199CD680646CA
:10222C0035B14A688B682046D31A0A680969A847F1
:10223C0001A9606AFFF768FB606A8588ADB2002D62
:10224C002FD001A9FFF746FB01992046FFF782FB2F
:10225C00304601F01CFB012002B070BD106CC505AE
:10226C001BD51948186199604FF48073D2E7012887
:10227C0013D12268D16A11F0800106D0114919617D
:10228C000021996080235363C5E7D06A400604D5CA
:10229C000D48186199604023F5E700221A619A6095
:1022AC00B9E7012323752046FFF7E8FE94F8313097
:1022BC0084F82C50032BCBD02046FFF72FFCC7E71C
:1022CC000B7000F00D7000F00C7000F02DE9F04177
:1022DC00094F04460D460FCF88B001AE0FC697E8E4
:1022EC00070086E80700002C00F0C48445B9034EB3
:1022FC00304608B0BDE8F08128D80200037000F029
:10230C003422002120462BF01EF92046FFF7C0FA9C
:10231C0006460028ECD12B7C84F83130CD4A2B6852
:10232C002360934284F8320040F07F81CA4B2362D1
:10233C00CA4BE3604FF440232361D5E90623002602
:10234C00626216805680968084F82C60A3621E8090
:10235C005E809E806B6803936B89ADF81430AB89FB
:10236C00ADF81230AB7B8DF810300121EB7BBC4803
:10237C0084F82D6084F82F6005278DF816308DF8C1
:10238C00117000F0E3FE0121B64800F0DFFE0121E0
:10239C00206A00F0DBFE01A928688DF8046002F0C9
:1023AC0015FAD5F800C06A7ADCF878002B7A20F49C
:1023BC00F85020F01F00104340EA03200321CCF812
:1023CC007800CCF874102068DFF888C2604540F0C3
:1023DC006281BB4240F27A81981F042840F27881D6
:1023EC00A3F10B00B84240F27581A3F1110006284D
:1023FC0008D9A3F11801062940F26E811F2B14BFD6
:10240C00FF213946042AE17540F26881511F0429E5
:10241C0040F26681A2F10A01052940F26381A2F122
:10242C001001062940F26081A2F11701072940F240
:10243C005D811F2A14BFFF2100212176002B58D06B
:10244C00012B56D0022B54D0032B52D0042B50D03E
:10245C00052B4ED0062B00F05381072B00F0528138
:10246C00082B00F05181092B00F050810A2B00F051
:10247C004F810B2B00F05A810C2B00F039810D2B66
:10248C0000F038810E2B00F037810F2B00F03681D5
:10249C00102B00F03581112B00F02E81122B00F047
:1024AC002D81132B00F02C81142B00F02B81152B7C
:1024BC0000F02A81162B00F02981172B00F02881BF
:1024CC00182B00F02781192B00F026811A2B00F015
:1024DC0025811B2B00F024811C2B00F023811D2B4C
:1024EC0000F022811E2B00F021811F2B0CBF072333
:1024FC00FF23E376002A00F0A983012A00F0A883C9
:10250C00022A00F09183032A00F09083042A00F041
:10251C008F83052A00F08E83062A00F08D83072A0C
:10252C0000F08C83082A00F08B83092A00F08A8340
:10253C000A2A00F06F830B2A00F06E830C2A00F03D
:10254C006D830D2A00F06C830E2A00F06B830F2A2A
:10255C0000F07083102A00F06383112A00F062836C
:10256C00122A00F06783132A00F06683142A00F005
:10257C006583152A00F06483162A00F06383172AFA
:10258C0000F06283182A00F06183192A00F060833E
:10259C001A2A00F049831B2A00F048831C2A00F0F9
:1025AC0047831D2A00F036831E2A00F035831F2A2C
:1025BC0014BFFF23002323776B7C6376AB7C63779C
:1025CC00EB7CA3762B7DA37701212046FFF712FB32
:1025DC00064600287FF48CAE01F053F92F7C032FB4
:1025EC00804640F037832B682A8CDA675A6E42F0AB
:1025FC0004025A665A6F42F030025A6728684FF04C
:10260C00FF3383642B7C032B0CBF0521042102F0C8
:10261C00A3F82B684FF44062DA602046FFF796FA75
:10262C000646404601F033F962E60F4A934206D162
:10263C000E4B23620E4BE3604FF450237CE60D4AA5
:10264C0093421DD10C4B23620C4BE3604FF460237F
:10265C0072E600BF000001400042040001000C00C3
:10266C004041050000350A000004014000520400FE
:10267C0001000D00000801400062040001000E0082
:10268C00C54A93427FF433AEC44B2362C44BE36020
:10269C004FF4702350E6DFF80CC3604548D1052B8E
:1026AC0014D9981F042813D9A3F10B00052811D9AC
:1026BC00A3F1110006287FF6A5AEA3F11801062997
:1026CC000AD91F2B14BFFF2105219BE6314699E641
:1026DC00012197E6022195E6394693E60021ACE606
:1026EC000121AAE60221A8E60321A6E60521A4E61B
:1026FC000723FEE60823FCE60923FAE60A23F8E69C
:10270C000B23F6E60C23F4E60D23F2E60E23F0E69B
:10271C000F23EEE60023ECE60123EAE60223E8E6CB
:10272C000323E6E60423E4E60523E2E60623E0E6DB
:10273C00DFF874C2604540F03981042B40F2F88018
:10274C00591F032940F2F680A3F10901042940F234
:10275C00F380A3F10E010E2940F2F080A3F11D01CC
:10276C00012940F2ED801F2B14BFFF210A21032AFF
:10277C00E17540F2E780111F032940F2E580A2F1D8
:10278C000801042940F2E280A2F10D010E2940F269
:10279C00DF80A2F11C01022940F2DC801F2A14BF49
:1027AC00FF2100212176002B00F0DC80012B00F0B2
:1027BC00DB80022B00F0DA80032B00F0D980042B95
:1027CC0000F0D880052B00F0E380062B00F0E280AF
:1027DC00072B00F0C180082B00F0C080092B00F003
:1027EC00C3800A2B00F0C2800B2B00F0C1800C2B95
:1027FC0000F0C0800D2B00F0BF800E2B00F0C880C5
:10280C000F2B00F0C780102B00F0A880112B00F0CC
:10281C00A780122B00F0A680132B00F0A580142BA0
:10282C0000F0A480152B00F0A380162B00F0A280E2
:10283C00172B00F0A180182B00F0A080192B00F0B2
:10284C009F801A2B00F09E801B2B00F09D801C2B70
:10285C0000F09C801D2B00F09B801E2B00F09A80BA
:10286C001F2B0CBF0223FF23E376002A00F0D2813A
:10287C00012A00F0D181022A00F0D081032A00F055
:10288C00CF81042A00F0E081052A00F0DF81062ABE
:10289C0000F0DE81072A00F0C781082A00F0BA8117
:1028AC00092A00F0B9810A2A00F0B8810B2A00F03D
:1028BC00B7810C2A00F0B6810D2A00F0C5810E2AD2
:1028CC0000F0C4810F2A00F0AF81102A00F0AE8115
:1028DC00112A00F0AD81122A00F09C81132A00F01D
:1028EC009B81142A00F09A81152A00F09981162AEE
:1028FC0000F09881172A00F09D81182A00F09C8125
:10290C00192A00F09B811A2A00F09A811B2A00F0E8
:10291C0099811C2A00F098811D2A00F097811E2AAB
:10292C0000F096811F2A08BF052318BFFF2342E63B
:10293C0031461CE708211AE7012118E7394616E74A
:10294C000A2114E700212DE708212BE7012129E7B3
:10295C00052127E70A2125E7022385E7032383E7DF
:10296C00042381E705237FE706237DE707237BE725
:10297C00082379E7092377E70A2375E70B2373E725
:10298C000C2371E70D236FE70E236DE70F236BE725
:10299C00002369E7012367E7000C01400072040083
:1029AC0001000F000004014000080140B34EB0428A
:1029BC007FF49DAC072B21D9A3F10801012940F22A
:1029CC00EF80A3F10A01052940F2EC80A3F110017C
:1029DC00012940F2E980A3F11201052940F2E680B9
:1029EC00A3F11801042940F2E380A3F11D01012990
:1029FC0040F2E0801F2B14BFFF210A21062AE1754B
:102A0C0040F2DA80D11F012940F2D880A2F10901ED
:102A1C00052940F2D580A2F10F01012940F2D280A4
:102A2C00A2F11101052940F2CF80A2F1170104296E
:102A3C0040F2CC80A2F11C01022940F2C9801F2A6D
:102A4C0014BFFF2103212176002B00F0C780012B3E
:102A5C0000F0C680022B00F0C580032B00F0CC8068
:102A6C00042B00F0CB80052B00F0CA80062B00F065
:102A7C00C980072B00F0C880082B00F0B580092B0B
:102A8C0000F0B4800A2B00F0A5800B2B00F0A48082
:102A9C000C2B00F0A3800D2B00F0A2800E2B00F06D
:102AAC00A1800F2B00F0A880102B00F0AB80112B15
:102ABC0000F0AA80122B00F0A980132B00F0A88044
:102ACC00142B00F09180152B00F09080162B00F049
:102ADC008F80172B00F08E80182B00F08D80192B17
:102AEC0000F08C801A2B00F08B801B2B00F08A805E
:102AFC001C2B00F089801D2B00F088801E2B00F011
:102B0C0087801F2B0CBF0223FF23E376002A00F0E3
:102B1C008780012A00F08680022A00F08B80032A2D
:102B2C0000F08A80042A00F08980052A00F0888051
:102B3C00062A00F08780072A00F08A80082A73D0C2
:102B4C00092A67D00A2A67D00B2A67D00C2A67D0CB
:102B5C000D2A67D00E2A6DD00F2A71D0102A71D091
:102B6C00112A71D0122A71D0132A71D0142A5BD079
:102B7C00152A5BD0162A5BD0172A5BD0182A5BD09B
:102B8C00192A5BD01A2A5BD01B2A5BD01C2A5BD07B
:102B9C001D2A5BD01E2A5BD01F2A08BF0823C4E65F
:102BAC0008212BE7012129E7092127E7022125E745
:102BBC00052123E70A2121E7032144E7082142E705
:102BCC00012140E709213EE702213CE705213AE7D4
:102BDC000A2138E7062398E7072396E7082394E7AA
:102BEC00092392E70A2390E702238EE703238CE75D
:102BFC0004238AE7052388E70B2386E70C2384E765
:102C0C000D2382E70E2380E70F237EE700237CE76A
:102C1C0001237AE70623CEE40723CCE40823CAE495
:102C2C000923C8E40A23C6E40323C4E40423C2E44E
:102C3C000523C0E40B23BEE40C23BCE40D23BAE44F
:102C4C000E23B8E40F23B6E40023B4E40123B2E46A
:102C5C000223B0E4022F7FF4D1ACFEF7EDF9607FD4
:102C6C000749FEF7F7F9A675267567752046FFF735
:102C7C0005FAC3E4034EFFF73BBB00BF000C014059
:102C8C00711A0000027000F090F83120012A10B582
:102C9C00034610D102290ED0827D8A4201D1002038
:102CAC0010BD997511B9FFF7C3F9F8E70129F6D1F1
:102CBC00FFF7A0F9F3E70148F2E700BF057000F059
:102CCC00F0B587B004461646FEF7D0FD054600BBAE
:102CDC00CDE9011604936A460F4BA06A039601A92D
:102CEC000593FEF749FF054698B994F82D3083B942
:102CFC0000F0C7FDA36A9B889BB2064633B10099CE
:102D0C002046FEF749FE012384F83030304600F0AF
:102D1C00BEFD284607B0F0BD017000F070B588B05C
:102D2C000D220021294C2A4E04A82AF00CFC002567
:102D3C000223012127488DF81010CDE90155039588
:102D4C008DF80A3000F002FA294601AA204601F05B
:102D5C009AFC4FF6FF73E3618DF81250354604A9C7
:102D6C00204601F03DFC1C4800F0D0FA9DF81230D2
:102D7C00D8400133DBB20A2B30608DF8123002D808
:102D8C00164B9842EBD81648164C00F0BFFA164971
:102D9C00B1FBF0F12868154A0025E1FB0045002342
:102DAC00204629462AF00CFA114B084A1860114BA0
:102DBC0000201870936923F0100393610E4B4FF4AD
:102DCC000062C3F880211A6008B070BD0080014019
:102DDC0050240020000204004041050080841E00A5
:102DEC007000020020A1070000B0710B40420F00E0
:102DFC00542400205824002000E100E01E4BF7B5BD
:102E0C0019681E4C1E4A1F4E0025E0FB014520464A
:102E1C00294600232AF0D4F9DFF86CC04FF6E854A9
:102E2C0000254FF6E75E4FF0FF378D4208BF844216
:102E3C0011D380B260B1144A516A89B2536A9BB201
:102E4C00ADF80630BDF806305B1A9BB29842F5D847
:102E5C00002003B0F0BDDCF8242092B2DCF8243062
:102E6C009BB2ADF80430BDF804309B1A9BB273458D
:102E7C00F4D980197941D8E75024002020A107000B
:102E8C0040420F001802FFFF00800140044BDA683B
:102E9C00D20604D510225A61024B01221A707047D7
:102EAC0000800140582400202D4B002A70B52D4D78
:102EBC00446B08BF1D462C4B14BF102600269842AD
:102ECC003AD102293FD004D8B9B1012921D000232D
:102EDC002DE0062931D0812935D00329F7D1234B98
:102EEC001A6819681B68120C1B0C03F0F00302F42F
:102EFC00FE421A43C1F3034318E01D490B680A68EC
:102F0C0003F4FE4302F00F021A430B6803F0F003C4
:102F1C000CE0174A1368116812681B0C120C02F0B3
:102F2C00F00203F4FE431343C1F303421343B340D3
:102F3C002C400D4A2343536370BD0E4B1A681B681B
:102F4C0002F00F02E2E7094A13681168126803F4F1
:102F5C00FE4301F00F010B4302F0F002E6E700BF65
:102F6C000080FFFFFFFF0080002000401482E00F74
:102F7C001082E00F1882E00F38B50C4602238360F4
:102F8C00002289780546FFF78FFF207961786279F6
:102F9C00030243EA016343EA0243E27843EAC203D1
:102FAC00E2790AB143F00053227A0AB143F00403E8
:102FBC00A2790AB143F00203627A0AB143F0010329
:102FCC00F328A27806D12AB903299CBF23F0706399
:102FDC0043F0806351B20029ACBF43EA421343F083
:102FEC00E0032B616B69002923F4F21323F0070330
:102FFC00BCBF22F080021343227843EA4243E27AB8
:10300C000AB143F480436B616D0105F18445A37AE9
:10301C00AB6038BD0C4B984210D90C4B984210D970
:10302C00022201230A490B600A49D1F8003123F02E
:10303C00807343EA0263C1F80031704700221346E3
:10304C00F0E70122FBE700BF0048E8010090D00345
:10305C004000C84300400E400E4B30B50E4C5B6830
:10306C00C9B2002304EBC30215798D4203D154F885
:10307C00335085420BD20133052BF3D10322054982
:10308C004B6823F0407343EA02634B6030BD5279C6
:10309C00F5E700BF00000E4054D8020038B5074CCD
:1030AC0041F67133256C236401F044FC0021FFF7D9
:1030BC00D3FF0DB10023236438BD00BF00000E40C8
:1030CC00044BD3F84421D20703D4D3F84021104247
:1030DC00FBD1704700400E400C4AD2F89030516A38
:1030EC000B4B21F0300141F0100110B55162146B03
:1030FC00C0F3C31103310F2903EA040328BF0F21C6
:10310C00034343EA0173136310BD00BF00400E403C
:10311C0000F8FF0F044A1368002BFCD1034B5868CE
:10312C00C0F30140704700BFC800C64300300E40DA
:10313C0038B5054C41F67133256C2364FFF78CFFD1
:10314C000DB10023236438BD00000E40C0F30322F0
:10315C00013A38B50546092A13D8DFE802F02313E3
:10316C001212051619121C20104C0020C5F3043540
:10317C0008B1FFF7A5FF04F1047405EBC404A40027
:10318C00216038BD00200A4CF0E70120094CEDE726
:10319C001020094CEAE74FF48030084CE6E7002099
:1031AC00074CE3E70020074CE0E700BFB0400E40BF
:1031BC00C0400E40E0400E40E8400E40F0400E4053
:1031CC0050410E4000400E4000F00F00013807281F
:1031DC0048D8DFE800F0040F1947232D4735244B5E
:1031EC00D3F8943003F00703023B052B3CD8214A5B
:1031FC00D05C70471E4BD3F8803003F00703013BC3
:10320C00032B33D81C4AF3E7194BD3F8843003F063
:10321C000703013B032B29D8184AE9E7144BD3F8D1
:10322C00883003F00703013B032B1FD8144ADFE758
:10323C000F4B1B6F13F0010F14BF092007207047B1
:10324C000B4BD3F85C3103F03003202B06D0302B22
:10325C0006D0102B0CBF07200120704704207047AC
:10326C0008207047002070470520704701207047E8
:10327C0000400E4044D802004AD802004ED802004A
:10328C004AD8020008B50146FFF79EFF1B4B994236
:10329C0011D01B4B994212D01A4B994204D11A4BA4
:1032AC00D3F8800000F007000138032824D8DFE8A9
:1032BC0000F00A0E1612144BD3F88400F2E7124BEE
:1032CC00D3F88800EEE7BDE8084001F091BBBDE8FB
:1032DC00084001F093BBBDE8084001F08CBB01F045
:1032EC0051FB094BD3F80031C3F300635A1C012383
:1032FC009340B0FBF3F008BD0020FCE70300200076
:10330C000500240002001E0000400E4000F478105E
:10331C00B0F5A01F08B56CD021D8B0F5202F07D080
:10332C000AD8B0F5003F59D0B0F5802F4BD0A8BBD0
:10333C00BDE8084001F002BBB0F5602F00F08380BF
:10334C00B0F5801F00F08780B0F5402F26D101F03A
:10335C00F5FA474BD3F81431C3F304233AE0B0F534
:10336C00001F59D013D8B0F5D01F57D0B0F5F01FAF
:10337C003AD0B0F5B01F11D13E48FFF783FF3C4B5C
:10338C00D3F8202102F00F020123934023E0B0F583
:10339C00381F38D004D8B0F5101F52D0002008BD0B
:1033AC00B0F5401F43D0B0F5481FF7D13248FFF7B6
:1033BC000BFF07284FD0082850D00428EED1BDE8C9
:1033CC00084001F0F1BA01F0B9FA294BD3F80C31ED
:1033DC00C3F308230133B0FBF3F0E0E701F0AEFADE
:1033EC00234BD3F80831F3E72248BDE80840FFF738
:1033FC0049BF2248FFF746FF1D4BD3F8303103F08D
:10340C000303D840CBE71B48FFF73CFF184BD3F81E
:10341C002031C3F30113F4E71948E6E71848FFF726
:10342C0031FF134BD3F82821C2F30112ACE7144837
:10343C00FFF728FF0E4BD3F82831C3F301231A1DD5
:10344C00A2E70E48D1E70F48FFF7BEFE072802D0CF
:10345C000928A3D16CE70C4B1868A0E701F06EFAB1
:10346C00034BD3F80031C3F3042303FB000096E7AE
:10347C0000400E4002001E00B8003200050024007F
:10348C000300200006000E00DC1B00200E4B5A6AC5
:10349C0012F0300F04D0202913D0302900D011B9EC
:1034AC004FF4400200E0094AD3F8901032EA0101CF
:1034BC00FAD1520246BFD3F8A000C0F380200120FD
:1034CC0070474FF40002EFE700400E40FF33E10776
:1034DC0002280AD129B1064B4FF48060C3F8A8002A
:1034EC00596612B10220FFF7D1BF0120704700BF0F
:1034FC0000400E40F8B5042850D8DFE800F00A036D
:10350C00116F74008026402406230725002951D012
:10351C0048E04FF400764FF4807408230925F5E752
:10352C00002944D0324C636A13F0300F37D1314B41
:10353C00DB6B636ADB0705D5636A23F0300343F06A
:10354C0010036362042402230325294E34662A4E99
:10355C0033449B001F68002FFCD0FAB13544AD00FA
:10356C002B68002BFCD0022818D1B9B1204E716AFF
:10357C0011F0010118D001222021FFF7A9FFD6F884
:10358C009C70012200210220FFF7B4FFC7F30A0050
:10359C00FFF7A2FD34662B68002BFCD0F8BD042489
:1035AC00022303250021D0E7FFF770FFE7E7082689
:1035BC00022303250E4901200E6600FA03F3D1F80D
:1035CC0090001842FBD1002AE8D00123084A03FAE4
:1035DC0005F5D2F890302B42FBD1DFE7012402260F
:1035EC000023254692E720261024042305258DE789
:1035FC0000400E4000300E408004F210112870B5CF
:10360C0006460C4626D1042912D101F0CDF9054607
:10361C00A8B10021284600F049FB06F00F06013E38
:10362C00072E72D8DFE806F023186D716B8B71963C
:10363C00052904D1624B1D68624B9D42E9D8023CBE
:10364C000A2C62D8DFE804F01E51434A61616161C3
:10365C006155B7000025E0E75B4D013C092C54D8BF
:10366C00DFE804F06B545B53536253535351023CE9
:10367C000A2C4AD8DFE804F0073A2C334949494967
:10368C00493E410000250020042401221146FFF789
:10369C0031FFFFF703FD1DB14C4A1368002BFCD121
:1036AC004B4B4C485C67FFF731FEFFF7B3FC01F066
:1036BC0069F90446FFF72EFD01462046FFF738FD59
:1036CC001DBB28460121BDE8704000F0EFBA002573
:1036DC004148FFF79FFC02200446D6E700253E48F0
:1036EC00FFF798FC01240320CFE7002501200324D9
:1036FC00CBE7002503200524C7E70724C9E7374D8E
:10370C00ABE7374DA9E704232B6070BD01221146AE
:10371C000020FFF7EFFE0223F6E7012211461046C8
:10372C00FFF7E8FE0123EFE701F02CF9FFF772FC3D
:10373C002C4B01221A600323E6E70023E4E7072C55
:10374C0004D0092CE1D1224B012201E0204B0022B4
:10375C001A67DAE7013C072CD7D801A353F824F0F9
:10376C00BF3700001737000017370000B1370000D3
:10377C001737000017370000A33700008D37000003
:10378C0003221349D1F85C3123F0300343EA0213CE
:10379C00C1F85C31B9E7012211460420FFF7AAFEFB
:1037AC000122EEE7012211460220FFF7A3FE0222BE
:1037BC00E7E70022E5E7FFF771FC002507246FE738
:1037CC00E81B0020002D310180400E40C800C6438C
:1037DC0000400E4000250A000148E80188400E40D8
:1037EC0084400E400816C84310B504461120FFF75C
:1037FC00EBFC012200210220FFF77CFE174A217C02
:10380C00536A23F00103022908BF43F001035362FA
:10381C00134B21781960637AA18843EAC123D362E0
:10382C00136BA07A217A03F07F630343E08843EAA9
:10383C00C02343EAC11303310F2928BF0F2143EAE8
:10384C0001731363A37B617B1B0143EA0133E17BAF
:10385C000B43217B43EA0143536310BD00400E40F0
:10386C00A004C843EFF3108072B6704700B962B67B
:10387C007047602383F311887047002383F311880A
:10388C007047EFF31180602383F31188704780F346
:10389C0011887047EFF31083DB0706D4EFF3118028
:1038AC005F2894BF00200120704701207047000062
:1038BC004109054A00F01F0352F82100D840C043CB
:1038CC0000F00100704700BF00E100E010B50446B5
:1038DC00EFF31083DB0733D4FFF7EAFF00282ED178
:1038EC00002CA7BF04F1604404F5614404F00F04FC
:1038FC00144BACBF94F800231A5D5209EFF31183FB
:10390C0013B1B2EB531F1BD20F4C6368C3F3080304
:10391C00ABB1103BDBB259B20029B5BF03F00F03BA
:10392C0001F16043043B03F56143B6BF1B1993F8E7
:10393C000003187E4009824234BF0020012010BDD4
:10394C000120FCE714ED00E000ED00E0024A1368F2
:10395C00002BFCD1704700BFC800C64342EA0323CA
:10396C0040F2011293422BD0B3F5817F08D2012B88
:10397C001DD030D3B3F5807F31D0002213461CE02C
:10398C0040F20122934222D006D8B3F5007FF4D145
:10399C00174BD3F870310DE0B3F5407F23D040F2D4
:1039AC0001329342E9D1124BD3F878310BE0104B32
:1039BC00D3F87431C3F30722DBB203600A6070479B
:1039CC000B4BD3F874311A0EC3F30743F5E7084BCE
:1039DC00D3F87831EEE7064BD3F86C31EAE7044BB9
:1039EC00D3F86C31EFE7024BD3F87031EBE700BF43
:1039FC00B081E00F08B5FFF7A9FF084B19685A68AA
:103A0C00C1F30121C2F3014291421A688CBF42F00A
:103A1C00100222F010021A6008BD00BF00300E40E8
:103A2C00064B1B68DB0608D5054B1B69C3F3044327
:103A3C00082B02BF034B044A1A60704700300E403B
:103A4C0000400E40E81B0020C0EA2101154B022863
:103A5C00D3F8803113D0032814D0012814BFDBB263
:103A6C00C3F307231B0323F47042B1B9BAB90E494F
:103A7C00CA6E22F470421343CB6601207047C3F325
:103A8C000743EFE71B0EEDE70749D1F8EC2022F4D2
:103A9C0070421343C1F8EC30EFE7002AF4D0002059
:103AAC00704700BFB081E00F00300E4038B5234B9B
:103ABC00234D1B7823492448C3F102021023934061
:103ACC002B6145F60E03D1F88041C1F880310368B3
:103ADC0023F0AA03DB05DB0D0B66FFF737FF2B6822
:103AEC0013F0100F04F00104054614D0D1F8403146
:103AFC00DA01FBD4154B1B680B61154B19780529A2
:103B0C000DD1144B1868FFF721FF0D4B5968C1F309
:103B1C000141FFF70DFB0E4B1978052902D011203E
:103B2C00FFF76CFD2B68DB075EBF064B02221A66A3
:103B3C001CB1044B0022C3F8802138BD6D24002039
:103B4C0000300E4000400E405C2400206824002011
:103B5C0066240020E81B002010B50B4C0B4BD4F84E
:103B6C0090201A601120FFF72FFB094B1870FFF7FC
:103B7C00EDFE084B084A5B68C3F301431370074B17
:103B8C0022691A6010BD00BF00400E405C2400206A
:103B9C006624002000300E406D2400206824002094
:103BAC0010B5044608B1FFF7D7FFFFF723FF084A0B
:103BBC00136943F00403136130BF1CB1BDE810401E
:103BCC00FFF774BFFFF72CFFBDE8104000F0DABE22
:103BDC0000ED00E010B5044608B1FFF7BDFFFFF79C
:103BEC0009FF0F4BD3F88021D20748BF002245F6BE
:103BFC000E01C3F8801148BFC3F88021094A13692C
:103C0C0043F00403136130BF1CB1BDE81040FFF753
:103C1C004DBFFFF705FFBDE8104000F0B3BE00BF7D
:103C2C0000400E4000ED00E00A4B9A69996922F4BD
:103C3C00403242F4003241F440314AF6E850986088
:103C4C009A6199619A6199619A6199619A61996194
:103C5C009A61704700300E40F8B5124B124DD3F8F4
:103C6C00003104460F4600F069FE0646FFF76EFE73
:103C7C006A68C2F30142944213D0022C02D121464D
:103C8C00FFF756FAC4F10202102393402B610FB1D7
:103C9C00FFF75CFE2CB921463046BDE8F840FFF733
:103CAC0047BAF8BD00400E4000300E4038B50C4B02
:103CBC000D46D3F8004128B900F040FEC4F30424AB
:103CCC0004FB0000074B1B7829463BB1064B98427E
:103CDC0004D80220BDE83840FFF7BEBF0020F9E74A
:103CEC0000400E406C240020FF2C31010378134A55
:103CFC00002B437870B514BF04260026002B837864
:103D0C00946914BF02250025002B037924F03F048D
:103D1C0043EA0403C47814BF08210021012C08BF16
:103D2C0043F0010333432B430B43936113684179F5
:103D3C0023F4403343EA0143136070BD00300E405E
:103D4C001C4B9A6FD107FCD41B6C13F003031EBFE2
:103D5C00194A01211160834203D108B9164B18602E
:103D6C007047032B00D09BB9431E012B10D8114B6D
:103D7C004FF40022DA629A6FD207FCD41A6C22F04C
:103D8C00030242F001021A640A4A536A1903FCD571
:103D9C00084A1146936FDB07FCD4136C23F0030322
:103DAC00034313648B6FDB07FCD4003018BF012076
:103DBC00D4E700BF00300E40B40AC6432DE9F04FE3
:103DCC00002389B0CDE90233CDE90433CDE90633C4
:103DDC00A0F5E163B3F5966F05460191934603D9BF
:103DEC00002009B0BDE8F08F4D4BB0F5E16F8CBFF2
:103DFC004FF0010A4FF0000AD3F8683100F08380CD
:103E0C001A0EC3F30743079204934FF496694FF4C9
:103E1C00E164DFF81081D8F84C70C7F301773B46AA
:103E2C00524605A902A8FFF799FDD8F8EC60C6F335
:103E3C0001263346524606A903A8FFF78FFD0798C3
:103E4C00049A2C1B811A6143B1FBF9F3D1182CBFD6
:103E5C00012300238842C3D3002BC1D1069A0398B7
:103E6C00131A6343B3FBF9F310EB030A2CBF0123C2
:103E7C0000235245B4D3002BB2D1059B029A981A59
:103E8C004443B4FBF9F912EB09092CBF01200020C3
:103E9C004B45A5D30028A3D1BBF1000F0ED0D8F809
:103EAC005C3023F4FE4323F00203B5F5E16F43EAE3
:103EBC00012318BF02200343C8F85C30019B63B395
:103ECC0000213846FFF7C2FD002889D00121304679
:103EDC00FFF7BCFD002883D0124A536ED14538BF82
:103EEC00D14623F4FF73B9F1E70F23F0010328BF88
:103EFC004FF0E709B5F5E16F18BF43F0010343EA52
:103F0C00490353666DE7C3F30722DBB207920493B0
:103F1C004FF416794FF496647BE7012061E700BFFC
:103F2C00B081E00F00300E40304B1A6FD96CC907CE
:103F3C0002F0070242D5012A40D9132851D914386E
:103F4C0013288CBF102308232849013BCA6C180383
:103F5C0022F47F4240EA03231343CB64244BCA6C04
:103F6C001B88C2F303222833013202EB820003EBDD
:103F7C005303B3FBF0F3C86C013B072B20F0EE604E
:103F8C0028BF072340F4801040EA0363CB64194B2D
:103F9C00B3F90030002B10DB2833500800EB420241
:103FAC0003EB5303B3FBF2F30A6D072B28BF072374
:103FBC0022F0700242EA03130B657047DB6CD907E1
:103FCC0006D4012A04D809280BD90A380928B8E7DD
:103FDC00064BDB6C13F00103B6D0012A03D827285B
:103FEC00AFE70423B0E70023AEE700BF00300E407C
:103FFC006224002064240020054A064B1B68136FC2
:10400C0023F007031843044B10671888FFF78CBF85
:10401C0000300E408009C6436024002038B5364B72
:10402C0002229A639B6B03F00F039342044602D067
:10403C000025284638BDC188B0F90C504A294ED904
:10404C00B1F5FA7F4DD340F6C313994294BF4FF0AC
:10405C0000514FF040512848C36C23F0405323F0DB
:10406C000103002DA8BF43F001030B43C364D0F838
:10407C00EC3043F44073C0F8EC30C36E43F0807303
:10408C00C3661E4B186800B10420FFF7B5FF1C4B2C
:10409C00218919801B4BB4F90C201A801A4BA0886B
:1040AC001880FFF741FFA37BF3B1012B20D0012235
:1040BC0011466088FFF782FE05460028B8D00E4AEC
:1040CC006078D36B43F48063D363FFF739FEA37A34
:1040DC00A3F12002534253410C4A1360A9E700217B
:1040EC00B9E74FF08051B6E7034B094A9A65DEE712
:1040FC00014B084AFAE700BF00300E408009C64366
:10410C006224002064240020602400209407C6430D
:10411C0077402057372110B7044AD2F8443423F0A3
:10412C0003031843C2F84404704700BF00A00040CA
:10413C00072A70B501F003014FF00F0523D8960044
:10414C001A4CB540256004F10074B0402060032087
:10415C00B04001FA06F61649086001F100710E60D4
:10416C001449114489000B609DF81030C1F880305F
:10417C00012303FA02F2104BC3F824249DF81430E7
:10418C00C1F8003370BDA2F10804A4000B4EA54089
:10419C0035600B4DA04028600320A04001FA04F4C8
:1041AC000849086001F100710C60D9E700A40044D3
:1041BC0008A400448020851000A0004004A4004402
:1041CC0004A400460CA40044F0B54AB130261E4CA1
:1041DC00012546438D4034440BB304F1C064256083
:1041EC003024444304F18044072904F5204419D8B1
:1041FC0065688E000F27B74025EA070502FA06F618
:10420C003543656052B9012202FA01F13022504364
:10421C000D4A0244A3B102F1C0621160F0BD04F179
:10422C008064DCE701F18045083DA668AD000F27EE
:10423C00AF4026EA070602FA05F53543A560E1E72B
:10424C0002F18062E9E700BF0CA00040074B4FF47D
:10425C000072C3F88020BFF34F8FBFF36F8F044BF6
:10426C0004480021D9661962FEF770BF00E100E036
:10427C0000200E4000550A00034B03449B0081F0C4
:10428C0001011960704700BFA001F11010B5044680
:10429C0001211148FEF75AFFB4F8013022785BBABD
:1042AC009BB243EA02630D4A136000231362D3628C
:1042BC0053634FF00043D3664FF0FF339366084AC5
:1042CC004FF40071C2F88011E3785B01DBB282F825
:1042DC000933116010BD00BF00550A0000200E40CC
:1042EC0000E100E02DE9F041254D91F80BE091F84B
:1042FC000AC00F7B0C464FF03008C3B2012608FBF6
:10430C0000509E402368497BC0F880304FEA0E5322
:10431C0043EA0C4343EA475322F00302C0F88810E7
:10432C00C0F88430C0F89820AE66FFF7AAFAEB6E9E
:10433C003343EB66237A13B16B6B33436B63637A52
:10434C0013B1EB6A3343EB6222792B6822B1D2436F
:10435C00120262F47F42134062790AB143EA0223EB
:10436C00A2790AB123EA0203E27902B11343044AA7
:10437C001360044B1E60D663BDE8F041FFF787BAAB
:10438C0000200E4028200E4410B5C0B201248440F9
:10439C00FFF777FA054AD36E23EA0403D366044B7E
:1043AC001C60BDE81040FFF772BA00BF00200E4041
:1043BC0020200E44F8B5C3B201259D400446FFF7FA
:1043CC0060FA0A4B30221E6E9F6A02FB0434D4F84A
:1043DC008C40FFF75CFA3D4206D1C4F30A1008B9D1
:1043EC00354200D10130F8BD0020FCE700200E4022
:1043FC00036CDB0702D4436C0B42FCD17047CB43FC
:10440C005B0003F00A0310B541EA03020221FFF737
:10441C00EFFF426010BD436C002BFCD10122026403
:10442C00EA22426040F2F9720360C36003614361A7
:10443C0083634263C363436583650364704710B54C
:10444C0002460C469368DB06FCD540211046FFF76C
:10445C00CFFF946210BD0000054B5A685B68054B9A
:10446C0041F671321A649A6822F001029A60704720
:10447C0000300E4000000E40034B9A6822F00102FF
:10448C009A6000221A64704700000E4010B590FA32
:10449C00A0F2054C2368B2FA82F223EA00009140A4
:1044AC000143216010BD00BF00500E40014B0122A2
:1044BC009A60704700500E40124BF0B55C68124D7C
:1044CC00124E002318463768EA187F0751685A596C
:1044DC0008D4B2F5806F03D00DD8B2F5007F01D1AE
:1044EC0041F48071144202D0214208BF10430833BA
:1044FC00482BE8D1F0BDB2F5006FF1D0B2F5803F9A
:10450C00EDE700BF00500E407CD80200E841E00F00
:10451C008B784A789B0143EA82030A781343CA7862
:10452C0043EA02130A7943EAC2234A7943EA023383
:10453C008A79043043EA42430001014A1350704720
:10454C0000200440427801790378002A827870B503
:10455C0014BF04260026002AC27814BF102500259B
:10456C00002A42794FEA023242EA012242EA03026D
:10457C00837914BF20240024002BC37942EA03431F
:10458C0043EA0603027A43EA050314BF4FF40041E1
:10459C0000212343002A14BF4FF4003200220B43A6
:1045AC001343014A136070BD002004400B4A536949
:1045BC0011699B0003F03C03C1F381110B43837021
:1045CC00136903F03F0343709369D26903F0F0035E
:1045DC00C2F3031213430370704700BFD0FF0FE008
:1045EC002DE9F04F0C780CB9022343600023436291
:1045FC004B78CA7891F802B08D7A91F808A091F8AE
:10460C00069091F80780002B4B7A4FEA024214BFB8
:10461C004FF0400E4FF0000E42EA0B62002B14BF1D
:10462C008023002342EA0A02002DCD7A42EA892235
:10463C0014BF4FF0200C4FF0000C42EA0822002D62
:10464C000D7B42EA0E0214BF102700271343002DE6
:10465C000D79497943EA0C0314BF082600263B4325
:10466C00002D14BF4FF4005500253343002914BF0F
:10467C004FF0805100212B430B4303600CB10123FD
:10468C004360BDE8F08FF0B5537814781B0643EA0D
:10469C00846394792343947843EA0443D47843EABB
:1046AC000433147943EA8423547943EA0423D479F8
:1046BC00002C147A14BF4FF080470027002C547A3A
:1046CC0014BF4FF000560026002C947AD27A43EA9D
:1046DC00027343EA070314BF102500253343002C53
:1046EC0001F1060114BF042400242B4309012343C8
:1046FC004350F0BD70B5054616461C4619B9144812
:10470C00FEF704FE0146202C08D001D8ECB170BD98
:10471C00402C18D0602CFAD1042200E0082206FBB1
:10472C0002F35A0802EB4112B2FBF3F2094B203AA6
:10473C0003EAC2022B6823F060032B602B681C4336
:10474C002C606A61E3E70622E9E71022E7E700BF85
:10475C0040410500F8FF7F00CB435B0003F00A03E8
:10476C00C360C1607047000040F6AA63C36041F2A9
:10477C000502002303604260104A83604361C364F6
:10478C008264036643678367C3670D4B0D4A984287
:10479C0009D0904207D003F50063984203D003F58B
:1047AC008063984201D10023036500239042836506
:1047BC0002D0054A904200D1C3657047F9FF010051
:1047CC000000014000040140000C014038B50546D2
:1047DC000C46FFF7C9FF8B7C1BB1036843F0804389
:1047EC000360E37C1BB1237D43F08003AB65228A1D
:1047FC00637B1343E28913436B60D4E90112237B7F
:10480C002846FFF777FF637D1BB12B6843F4803399
:10481C002B60A37DE27D1B07120502F4E00203F07E
:10482C00E04313432B666B6F23F030036B676A6FA7
:10483C00237E13436B672378EB6038BD03691B063B
:10484C00FCD5C069C0B2704703695B06FCD54163F7
:10485C0070470368DB060FD447F231538268D207E6
:10486C0001D5013BFAD1036803F001038B421EBF53
:10487C0000F104704001016070470368D90707D547
:10488C0083689A0704D48368DB07FCD40123436054
:10489C0070474B78CA78002B8B782DE9F04114BF08
:1048AC004FF0020E4FF0000E002B14BF0423002318
:1048BC00002A0A7991F807800C7814BF4FF0080C85
:1048CC004FF0000C002A4A7914BF20270027002A39
:1048DC008A7914BF40260026002A0A7A4FEA02225F
:1048EC0042EA083291F8098042EA0402CC7A897AC9
:1048FC0042EA084242EA016242EA0E0243EA020339
:10490C0043EA0C0343EA070314BF10250025334385
:10491C00002C14BF4FF0004400242B43234347F2D8
:10492C0031528168C90701D5013AFAD10360BDE85B
:10493C00F08100000048704700F049020D4AD2F89F
:10494C00943003F00703032B11D0042B03D0022B5C
:10495C000BD1094B00E0094B1868D2F80031C3F3B6
:10496C0004230133B0FBF3F07047054BF4E74FF42D
:10497C000040F2E700400E40E41B0020EC1B00203E
:10498C00E81B002008B5FFF7D9FF054BD3F8083119
:10499C00C3F308230133B0FBF3F0024B186008BDDE
:1049AC0000400E40E01B0020014B1868704700BF10
:1049BC00E41B0020054B1860054BD3F8943003F032
:1049CC000703022B01D1FFF7DDBF7047E41B00206A
:1049DC0000400E40044B054A9A60D3F8882042F4FC
:1049EC007002C3F88820704700ED00E00002000060
:1049FC004FF4004070474FF47A707047014B1868C1
:104A0C00704700BFEC1B002008B5064B1B689B6968
:104A1C00DB0205D5012803D840F2022003F098FEF2
:104A2C00012008BD2808E10F014B1B68588970470D
:104A3C002808E10F70B51038C6B0EE2801F2818657
:104A4C00DFE810F07B0369037F0E7F0ED109B803FA
:104A5C00C303320341037F0E04047F0E7F0E300428
:104A6C003401A302B9020C014C037F0E7F0EB70771
:104A7C007F0E7F0ECF01FC01150C840C440C210C15
:104A8C00020C710CB10C7F0E7F0EDC0462069601D9
:104A9C006B050005C6054106F3057F0E7F0E7F0EE4
:104AAC007F0E7F0EA9039B05E7047F0E7F0E7F0E02
:104ABC007F0E7F0E7F0E7F0E430187016E017F0EEE
:104ACC007F0E7F0E7F0E7F0E7F0E7F0E7F0E7F0E72
:104ADC007F0E7F0E7F0E7F0E00073B049106AB0608
:104AEC004D046204C704AE047F0E9804E9067F0EE1
:104AFC008108E709010AFC082009C708490A80094E
:104B0C007F0E5C0ACA0B5009260A9D0A910AE2081C
:104B1C00CC08800A7F0EA301270330027F0E7F0E84
:104B2C00CA0683047F0E7F0E3905230DC00C420D7F
:104B3C005A0D360D4E0DE40CFA0CCC0C0D0DD80C98
:104B4C007F0E7F0E7F0E7F0E7F0E7F0E7F0E7F0EF1
:104B5C002B067F0E7F0EE003CE037F0EEF007F0E41
:104B6C007F0E660D7F0EA00D640EE80D1E0E360E28
:104B7C00C60D7F0EB80ADA0A7F0E7F0E7F0E7F0EEF
:104B8C007F0EA008030EBB08C90704086808380884
:104B9C007F0E7F0E7F0E76072D077F0EBC07FB075F
:104BAC0051072708470B66027D0298027F0E7F0E85
:104BBC00F90A7F0E300B570B7F0E7F0E7F0E7F0E88
:104BCC00A7094A08F2035B027F0E20012C08950707
:104BDC008907E307EF0739074507A107AC07B30BB4
:104BEC00CF0BEB0BDF0BA30B9E0B7F0E7F0E7F0E01
:104BFC007F0E7F0E2A0E7F0E830D7F0E470E580EF2
:104C0C00B30DBA067F0E7F0E7F0E7404DD067F0E89
:104C1C007F0E5E03F2021503DD02C4027F0E110249
:104C2C001A0712AB01930AAB00930CAA24ABC94927
:104C3C00012007F0E3FABDF848309DF828202499AC
:104C4C00BDF830001DF078FB46AAC34902F8EC0D04
:104C5C00002007F0D3FA012046B070BD24AB0CAA9B
:104C6C00BE49012007F0CAFA24999DF8300022F0C1
:104C7C0097FA46AAB84902F8D00D002007F0BEFA00
:104C8C000120E9E70CAB24AAB549012007F0B6FADC
:104C9C009DF83010249814F0CFFD46AAAE4902F8C6
:104CAC00D00D002007F0AAFA0120D5E724A807F0C0
:104CBC007BF824A817F002FB46AAA74902F8D00DEE
:104CCC00002007F09BFA0120C6E70CAAA24901209C
:104CDC0007F094FA24A99DF8300022F05FFA46AA56
:104CEC009D4902F8D00D002007F088FA24A908206D
:104CFC0007F044F89DF8980007F008F8BDF89A0002
:104D0C0007F014F89DF89C0007F000F89DF89D0042
:104D1C0006F0FCFF9DF89E0006F0F8FF01209BE7D3
:104D2C0086230BAA8C498DF84830012007F066FACF
:104D3C0024A99DF82C0022F036FA46AA12AB02F8F0
:104D4C00E80D88490093002024AB07F057FA0120A6
:104D5C0082E724A81DF0ACFF46AA7F4902F8D00DCB
:104D6C00002007F04BFA24A807F011FA012073E792
:104D7C0024A81DF099FF46AA24AB02F8D00D7A495D
:104D8C00002007F03BFA012066E70CAA72490120CB
:104D9C0007F034FA24A99DF830001FF055FA46AA02
:104DAC006D4902F8D00D002007F028FABDF89000EC
:104DBC0006F0BCFF9DF8920006F0A8FF9DF893004A
:104DCC0006F0A4FF9DF8940006F0A0FF9DF8950056
:104DDC0006F09CFF08200DF1960106F0CFFF012094
:104DEC003AE724A912A822F09FF946AA12AB02F8BE
:104DFC00E80D5D49002007F001FA24A9082006F00F
:104E0C00BDFFBDF8980006F091FF9DF89A0006F0E2
:104E1C007DFF9DF89B0006F079FF9DF89C0006F045
:104E2C0075FFBDF89E0006F081FF9DF8A00006F00E
:104E3C006DFF299806F08EFF01200DE712AC0823B8
:104E4C00214624A88DF8303022F096F946AA0CABF6
:104E5C0002F8EC0D454900930020019424AB07F0B7
:104E6C00CDF90120F8E60CAA3B49012007F0C6F960
:104E7C0024A99DF8300014F08BFD46AA364902F89F
:104E8C00D00D002007F0BAF99DF8900006F03EFF17
:104E9C009DF8910006F03AFF9DF8920006F036FF5F
:104EAC000120D9E60CAA2C49012007F0A7F924A966
:104EBC009DF830001EF07AF946AA274902F8D00D69
:104ECC00002007F09BF9BDF8900006F02FFFBDF80D
:104EDC00920006F02BFF9DF8940006F017FF9DF84A
:104EEC00950006F013FF9DF8960006F00FFF9DF855
:104EFC00970006F00BFF0120AEE622F0BBF846AAA5
:104F0C00154902F8880D002007F078F90120A3E676
:104F1C000BAA1149012012AC07F070F9224624A902
:104F2C009DF82C0022F0A8F846AA24AB02F8E80D54
:104F3C000F490094002007F061F901208CE622F063
:104F4C009FF846AA044902F8880D002007F056F98C
:104F5C00012081E604D902004ED9020009D90200D1
:104F6C0026D90200FDE1020022D902000CD9020070
:104F7C0010D9020022F082F846AAC04902F8880D26
:104F8C00002007F03BF9012066E60CAABB49012082
:104F9C0007F034F924A806F007FF24A99DF8300087
:104FAC0017F0BAFA46AAB54902F8D00D002007F05E
:104FBC0025F9012050E618F01BF946AAAF4902F872
:104FCC00880D002007F01AF9012045E612AB00937A
:104FDC000BAA0CABAA49012007F010F99DF8482048
:104FEC009DF830109DF82C0021F064F846AAA349D6
:104FFC0002F8880D002007F001F901202CE612AB15
:10500C000CAAA049012007F0F9F89DF948109DF869
:10501C00300021F04DF846AA984902F8880D00207E
:10502C0007F0ECF8012017E612AB02930CAB0193DE
:10503C000BAB00930DF126020AAB9349012007F04C
:10504C00DDF89DF848409DF930309DF82C209DF8F6
:10505C0028109DF82600009421F026F846AA8749CE
:10506C0002F8880D002007F0C9F80120F4E512AA17
:10507C008249012007F0C2F89DF8480021F016F88B
:10508C0046AA7E4902F8880D002007F0B7F80120E7
:10509C00E2E51FF0CDF846AA784902F8880D002009
:1050AC0007F0ACF80120D7E524A806F0FDFE24A8F3
:1050BC0017F096FA46AA714902F8D00D002007F0B5
:1050CC009DF80120C8E514F02BFC46AA6B4902F8A8
:1050DC00880D002007F092F80120BDE512AA67495F
:1050EC00012007F08BF89DF8480016F003FB46AA48
:1050FC00624902F8880D002007F080F80120ABE52A
:10510C000CF04DFB46AA5D4902F8880D002007F013
:10511C0075F80120A0E512AA5849012007F06EF895
:10512C009DF8480022F00DFC46AA544902F8880D5F
:10513C00002007F063F801208EE50AAB04930DF113
:10514C002603039309AB029324AB019312AB009398
:10515C000DF122020CAB4D49012007F04FF89DF8E0
:10516C00284002949DF8264001949DF82440BDF8F7
:10517C009030BDF84820BDF830109DF82200009406
:10518C0025F000FF46AA3D4902F8EC0D002007F07F
:10519C0035F8012060E524A807F006F824A81DF0D6
:1051AC0085FD46AA354902F8D00D002007F026F8F7
:1051BC00012051E524AA0120354907F01FF8354B91
:1051CC00BDF890201A80012046E524AA0120304920
:1051DC0007F014F8304BBDF890201A8001203BE505
:1051EC0012AA2649012007F009F89DF8480016F08C
:1051FC00D7FB46AA214902F8880D002006F0FEFFD5
:10520C00012029E512AA2549012006F0F7FF9DF996
:10521C00480014F0F9FB46AA184902F8880D002042
:10522C0006F0ECFF012017E512AA1449012006F044
:10523C00E5FF9DF8480021F01BFF46AA0F4902F834
:10524C00880D002006F0DAFF012005E50CAB009379
:10525C000BAA24AB1249012006F0D0FF9DF8302098
:10526C0024999DF82C0013F0D5FF46AA034902F8A7
:10527C00D00D002006F0C2FF0120EDE44ED9020053
:10528C0021D9020014D9020017D902001DD902003D
:10529C000ED90200F41F0020FA1F002045E2020084
:1052AC0025D9020014F07AF846AABF4902F8880DF5
:1052BC00002006F0A3FF0120CEE412AABA49012077
:1052CC0006F09CFF9DF848001CF0FDFB46AAB64971
:1052DC0002F8880D002006F091FF0120BCE40823A1
:1052EC000CAAB1498DF84830012006F087FF24A99B
:1052FC009DF830001DF092F9002012AB24AAAB49A6
:10530C0006F07CFF0120A7E412AAA749012006F0B1
:10531C0075FF9DF848001DF099F946AAA44922F89A
:10532C00880D002006F06AFF012095E424A815F0F2
:10533C0079FF46AA9C4902F8D00D002006F05EFFCA
:10534C0024A806F078FD012086E446AB082203F879
:10535C00E82D964924AA012006F050FF24A81DF040
:10536C0093FA46AA904902F8D00D002006F046FFA9
:10537C00012071E40CAA8C49012006F03FFF24A9FE
:10538C009DF8300021F0A2FE46AA874902F8D00D04
:10539C00002006F033FF24A806F03AFD01205BE460
:1053AC00082312AA82498DF83030012006F026FF1E
:1053BC0024A9BDF8480014F0ADFC46AA0CAB02F8C9
:1053CC00EC0D7C490093002024AB06F017FF012064
:1053DC0042E446AB082203F8E82D744924AA0120C4
:1053EC0006F00CFF24A814F079FC46AA704922F8A8
:1053FC00D00D002006F002FF01202DE41BF046F931
:10540C0046AA694902F8880D002006F0F7FE012033
:10541C0022E40CAB009324AA0BAB6749012006F0E5
:10542C00EDFE9DF830209DF82C10BDF8900021F079
:10543C009BF846AA5C4902F8D00D002006F0DEFE6F
:10544C00012009E408AB0BAA5C49009301200CABCA
:10545C0006F0D4FE24A806F0C3FC09AB12AACDE9D1
:10546C00003202930DF121020DF122035449012067
:10547C0006F0C4FE129B03939DF8243002939DF812
:10548C00223001930AAC9DF821309DF82020BDF804
:10549C0030100093BDF82C00049424AB21F082FD55
:1054AC0046AA234602F8F20D4649002006F0A6FE55
:1054BC000120FFF7D1BB08238DF821308DF8263061
:1054CC000DF1220302930BAB01930DF12103009319
:1054DC0008AA12AB3C4901200AAE0CAD24AC06F074
:1054EC008DFE9DF82230BDF82C209DF820000296F0
:1054FC0012A90195009421F0C5FD46AA0DF12603D1
:10550C0002F8F40D304900930020CDE901562346F2
:10551C0006F074FE0120FFF79FBB0CAA2449012062
:10552C0006F06CFE24A806F05BFC0DF1260312AA13
:10553C00CDE9003202930DF1220209AB2049012082
:10554C0006F05CFE129901910BAC9DF826109DF8AB
:10555C0024309DF822200091BDF83000029424A93B
:10556C0021F0C8FC46AA234602F8F00D154900208C
:10557C0006F044FE0120FFF76FBB0CAB24AA1349C5
:10558C00012006F03BFE9DF83010BDF8900018F09D
:10559C009DF946AA044902F8D00D002006F02EFE13
:1055AC000120FFF759BB00BF4ED902008DFB020052
:1055BC000ED90200FDE1020029D902002DD902000A
:1055CC0037D9020022D9020031D9020033D90200A6
:1055DC0024A806F005FC0AAB12AACDE9013203930C
:1055EC000DF1260300930DF1220209ABC4490120F1
:1055FC0006F004FE129801900CAC9DF828009DF862
:10560C0026309DF824209DF822100090029424A8A6
:10561C0021F07CFC46AA234602F8EC0DB949002087
:10562C0006F0ECFD0120FFF717BB24A806F0D8FB11
:10563C000DF1260312AACDE90332059309AB0293AF
:10564C000DF1220301930CAB009308AA0DF1210379
:10565C00AD49012006F0D2FD129803909DF826006A
:10566C0002909DF8240001900BAC9DF82200BDF82F
:10567C0030309DF821209DF820100090049424A82F
:10568C0021F05CFC46AA234602F8F00D9D4900204F
:10569C0006F0B4FD0120FFF7DFBA0CAA009224AB90
:1056AC009A49012006F0AAFD24999DF8300021F0BA
:1056BC0038FC46AA964902F8D00D002006F09EFD53
:1056CC000120FFF7C9BA0CAA9249012006F096FDF9
:1056DC0024A806F085FB0AAA009212AB8B49012084
:1056EC0006F08CFD129B9DF82820BDF8300024A9F3
:1056FC0021F08CFC46AA864902F8EC0D002006F03D
:10570C007DFD0120FFF7A8BA0CAB0DF122028249F6
:10571C00012006F073FD24A806F062FB0DF12603B0
:10572C0012AA019300927D4909AA012006F066FD98
:10573C00129A01920BAC9DF826209DF82430BDF8EE
:10574C00301000929DF82200029424AA21F0CAFB8A
:10575C0046AA234602F8F00D6A49002006F04EFDD9
:10576C000120FFF779BA08238DF830300CAB0BAA67
:10577C0000936B4924AB012006F040FD24A99DF851
:10578C002C001DF0A5F846AA614902F8D00D0020A6
:10579C0006F034FD0120FFF75FBA24AB12AA5E4974
:1057AC00012006F02BFD9DF84800BDF890101CF070
:1057BC0003FF0120FFF750BA24A815F05FFD46AA9D
:1057CC00534902F8D00D002006F018FD24A806F06D
:1057DC0032FB0120FFF740BA46AB082203F8E82D54
:1057EC0012AA00924F4924AA012006F007FD24A812
:1057FC009DF848101DF0AEF80120FFF72DBA24AA31
:10580C004349012006F0FAFC9DF8900019F04AFA81
:10581C000120FFF721BA0CAA3D49012006F0EEFC4D
:10582C0024A806F0FFFA24A99DF8300021F064FCAE
:10583C0046AA374902F8D00D002006F0DFFC012003
:10584C00FFF70ABA0BAB24AA01930092364912AAAD
:10585C00012006F0D3FC249A9DF82C10BDF84800CA
:10586C0021F04CF946AA2A4902F8E80D002006F06E
:10587C00C5FC0120FFF7F0B912AA2549012006F05A
:10588C00BDFC9DF8480016F06DF846AA204902F8B8
:10589C00880D002006F0B2FC0120FFF7DDB926F0E0
:1058AC00FDFA46AA1A4902F8880D002006F0A6FC5B
:1058BC000120FFF7D1B922F0C1FF46AA1B4942F8DB
:1058CC00880D002006F09AFC0120FFF7C5B922F0E4
:1058DC00BBFF46AA154942F8880D002006F08EFC45
:1058EC000120FFF7B9B922F0F4FC46AA084902F8E6
:1058FC00880D002006F082FC0120FFF7ADB900BF37
:10590C0036D9020022D902003CD9020002E2020080
:10591C004ED902000ED9020057D9020038D9020024
:10592C00FDE102004DD9020044D902000AD902005F
:10593C0012AACD49012006F061FC9DF8480026F022
:10594C00AFFA46AAC84902F8880D002006F056FCAA
:10595C000120FFF781B924AAC449012006F04EFCAE
:10596C00BDF8900022F05EFF0120FFF775B924AA64
:10597C00BD49012006F042FC9DF8900022F0B2FADD
:10598C000120FFF769B924AAB949012006F036FCB9
:10599C00249822F05FFF0120FFF75EB924AAB449D6
:1059AC00012006F02BFC249822F05AFF0120FFF76F
:1059BC0053B922F047FC0120FFF74EB924A912A8D5
:1059CC0022F078FC12A806F0A5FA24A806F0D3FA67
:1059DC000120FFF741B924A806F078FA0CAB0BAA0A
:1059EC00A449012006F00AFC9DF930209DF82C10EA
:1059FC0024A826F049FA46AA9B4902F8D00D0020AB
:105A0C0006F0FCFB0120FFF727B922F0C1F946AAEA
:105A1C00954902F8880D002006F0F0FB0120FFF7F5
:105A2C001BB922F0D1FA46AA8F4902F8880D002042
:105A3C0006F0E4FB0120FFF70FB924A806F083FA67
:105A4C0024A822F040FC0120FFF706B912A910206F
:105A5C0006F04EF906F088F9249006F041F90DF1A4
:105A6C0095018DF89400102006F042F90DF1A50176
:105A7C00102006F03DF924A912A822F0FCF946AA40
:105A8C00794902F8E80D002006F0B8FB0120FFF779
:105A9C00E3B823F050FE0120FFF7DEB824AA7249C8
:105AAC00012006F0ABFB9DF8900022F0EDFA0120EE
:105ABC00FFF7D2B824AA6E49012006F09FFB249868
:105ACC0022F0AAFA46AA684902F8D00D002006F086
:105ADC0095FB0120FFF7C0B806F046F9249006F0BC
:105AEC00FFF80DF195018DF89400102006F000F9E7
:105AFC000DF1A501102006F0FBF824A822F0B6F950
:105B0C0046AA594902F8D00D002006F077FB012077
:105B1C00FFF7A2B80CAB009324AA0BAB564901209B
:105B2C0006F06CFB9DF830209DF92C10249822F087
:105B3C00DFF946AA4C4902F8D00D002006F05EFBB6
:105B4C000120FFF789B846AB082203F8F02D0BAA09
:105B5C0000924A4912AA012006F050FB24A91020F9
:105B6C0006F0C6F824AA9DF82C1012A825F0E0FC2B
:105B7C0046AA3D4902F8E80D002006F03FFB012043
:105B8C00FFF76AB846AB082203F8EC2D3C4912AA81
:105B9C00012006F033FB24A9102006F0A9F824A953
:105BAC0012A802F07FFE46AA2F4902F8E80D002049
:105BBC0006F024FB0120FFF74FB825F01DFD46AA87
:105BCC00294902F8880D002006F018FB0120FFF788
:105BDC0043B80EF0EBF90120FFF73EB812AA2249A8
:105BEC00012006F00BFB00231A469DF848100120FB
:105BFC0025F026FC46AA1C4902F8880D002006F068
:105C0C00FDFA0120FFF728B846AB082203F8EC2D6B
:105C1C000CAA0092194924AA012006F0EFFA9DF86B
